1|1|8=FIX.4.2|9=0072|35=D|11=12345|34=1|35=D|49=SENDER|52=20250125-01:09:14|56=TARGET|10=138|
2|1|8=FIX.4.2|9=0072|35=D|11=12346|34=1|35=D|49=SENDER|52=20250125-01:09:14|56=TARGET|10=139|
