1|1|8=FIX.4.2|9=0072|35=D|11=12345|34=1|35=D|49=SENDER|52=20250124-22:16:33|56=TARGET|10=139|
2|1|8=FIX.4.2|9=0072|35=D|11=12346|34=1|35=D|49=SENDER|52=20250124-22:16:33|56=TARGET|10=140|
