2|8=FIX.4.2|9=0074|35=D|11=ORDER_2|34=1|35=D|49=SENDER|52=20250124-21:15:51|56=TARGET|10=153|
3|8=FIX.4.2|9=0074|35=D|11=ORDER_3|34=1|35=D|49=SENDER|52=20250124-21:15:51|56=TARGET|10=154|
4|8=FIX.4.2|9=0074|35=D|11=ORDER_4|34=1|35=D|49=SENDER|52=20250124-21:15:51|56=TARGET|10=155|
5|8=FIX.4.2|9=0074|35=D|11=ORDER_5|34=1|35=D|49=SENDER|52=20250124-21:15:51|56=TARGET|10=156|
