1|1|8=FIX.4.2|9=0072|35=D|11=12345|34=1|35=D|49=SENDER|52=20250124-21:57:19|56=TARGET|10=147|
2|1|8=FIX.4.2|9=0072|35=D|11=12346|34=1|35=D|49=SENDER|52=20250124-21:57:19|56=TARGET|10=148|
